:020000021000EC
:10C0000000400020BDFF0100F9FF0100FBFF01001F
:10C010000000000000000000000000000000000020
:10C02000000000000000000000000000FDFF010013
:10C030000000000000000000FFFF010001000200FE
:10C040000300020003000200950202000300020048
:10C0500003000200000000000300020003000200D1
:10C0600003000200030002000300020003000200BC
:10C0700003000200030002000300020003000200AC
:10C08000030002004100020003000200030002005E
:10C090000300020065FF0100EDE80100030002005B
:10C0A0000300020003000200000000000000000086
:10C0B0000000000000000000000000000000000080
:10C0C00010B5064C2378002B07D1054B002B02D06E
:10C0D000044800E000BF0123237010BDC4280020E5
:10C0E0000000000058910200084B10B5002B03D04F
:10C0F0000749084800E000BF07480368002B00D14B
:10C1000010BD064B002BFBD09847F9E7000000005C
:10C11000C828002058910200C42800200000000018
:10C12000164B002B00D1144B9D46402292029A1AC6
:10C13000924600218B460F461348144A121A0BF000
:10C1400054FF0F4B002B00D098470E4B002B00D014
:10C1500098470020002104000D000D48002802D05F
:10C160000C4800E000BF06F0B7F92000290009F0F4
:10C1700002FD09F03DFDC04600000800004000201F
:10C180000000000000000000C4280020502E002005
:10C19000000000000000000010B50400034B036025
:10C1A000636918305B689847200010BDA0890200C1
:10C1B00070B54369054D0400AB4202D05B6818308E
:10C1C00098476561200009F02CFC70BD9089020041
:10C1D000054B5A6911685A680A4201D1DB6800E0D0
:10C1E0001B691A607047C046E4280020094B42884A
:10C1F0001B685B8C9A420CD10389012B09D1C3685F
:10C200001A78054B002A01D0DA6800E01A695B68E9
:10C2100013607047E0280020FC280020F7B50400D8
:10C2200000250192C77FAF4256D9661970788842BF
:10C2300002D1152927D804E0605D01302D18EDB238
:10C24000F1E701228A40274802421CD0D919012077
:10C250001F2945DCE1193718B94210D80021C8B2AE
:10C26000834205D9019A7018575C01318770F6E74F
:10C27000625D9A186255E27F9B18E3772AE008789E
:10C28000C8540139E8E7655D013DEDB2AB4209D123
:10C290000021C8B283421DD9019A7018545C013143
:10C2A0008470F6E77F1BFF1801201F2F18DCA81CE5
:10C2B000361802204042401BE77FE219964203D223
:10C2C000377837540136F7E702204042451B7D1985
:10C2D000E57701E0002003E0019A200009F0B9FBB6
:10C2E000FEBDC046FC002000F0B591B06B460400D6
:10C2F000DA7100220F002160110008AE3270B3180D
:10C30000013200255970102AF9D12121337869446E
:10C310002371294BE382631D180000930BF05CFE30
:10C320006B460733A3610123E218A383E383D3772A
:10C330000A2200996584CA77A21DD37723002000C2
:10C340002C33A5620C221D705D709D702900303069
:10C350000BF04BFE2000194B0C22E36325642900EF
:10C3600044300BF042FE2A002800154B656523651A
:10C37000231D029303AB1D70991801324870102AD7
:10C38000FAD11B780D2133700E4B6944738221233F
:10C390006B4418000BF020FE0123337502ABB36130
:10C3A00000233800B38300F081F9036831001B6873
:10C3B0009847200011B0F0BD01A0FFFFE95902002D
:10C3C000DB59020000A0FFFFF0B5037989B0002B14
:10C3D0007CD105682B680093002B77D1280000F0F2
:10C3E00055F903AC0C220099019020000BF0FDFDE3
:10C3F00014200BF0BEFD364B220003930300C2CA8B
:10C40000C2C3344B019EC360009BA43603613368F2
:10C41000002B00D003613060280000F047F90C22A7
:10C420000021060020000BF0E0FD14200BF0A1FD20
:10C43000294B0393030086CC86C3284BC36000239B
:10C440000361B369002B00D00361B06158200BF089
:10C4500090FD040000222900FFF746FF204B280032
:10C460001C6000F013F9062109F028FB280000F0F9
:10C470000DF902231B4A032109F046FB280000F0B6
:10C4800005F9194A0921042309F03EFB280000F0B0
:10C49000FDF800230371280000F0F8F80368FA267D
:10C4A0009B6804009847B60003003000B34203D9EC
:10C4B000236820009B6898470C49704305F04CFDA9
:10C4C000E080280000F0E2F809F0E1FA09B0F0BDE0
:10C4D000AB5A0200135A0200EDC10100055A0200D6
:10C4E000E02800205C8E0200668E020071020000CF
:10C4F00070B5A6B001AD0822002128000BF075FD33
:10C500001B4B05AC089306AB06CD06C3194B13AD08
:10C510000993194B21000593184B28000A9301F049
:10C52000FDFF2000FFF738FEFA2040000BF069F90C
:10C53000010028000BF056F928000BF0A2FA0020A9
:10C5400000F082F80C220600002120000BF04DFDC7
:10C550000B4B05932B0007CC07C30A4B2900EB605C
:10C56000002330002B6109F08EFB26B070BDC04661
:10C57000D1C10100D5590200A089020090890200B2
:10C58000C9C30100F759020070B518250B4C2A00E9
:10C59000002120000BF029FD200000220F2109F0CE
:10C5A00014FB074C2A00002120000BF01EFD002286
:10C5B0000F21200009F009FB70BDC046E4280020CF
:10C5C000FC28002010B5A6B001AC082200212000F4
:10C5D0000BF00BFD0D4B13A8089306AB06CC06C35E
:10C5E0000B4B05A909930B4B05930B4B0A930023A7
:10C5F0000B930C9301F092FF13A80BF042FA05A8DD
:10C60000FFF7CAFD02F052F826B010BDF1C40100D8
:10C61000655B0200A0890200AC890200002370B5AE
:10C6200004000160436099420AD1064D2B68002B3B
:10C6300002D100F06FFA286023689B00EB5863601A
:10C64000200070BD2029002070B500280DD10C4CB1
:10C650002668002E07D108300BF08BFC0500310056
:10C66000FFF7DCFF2560206808E001220549064845
:10C670000B68134002D1026043600A6070BDC0467F
:10C68000142900202429002018290020436810B50F
:10C690000400002B02D1044809F07FFA60680368A7
:10C6A0001B69984710BDC0466A8E0200436810B5EA
:10C6B0000400002B02D1044809F06FFA6068036897
:10C6C0009B69984710BDC0466A8E020000487047BB
:10C6D000FFFF0000F7B50193036800915B68040059
:10C6E0001700984705000620002D3BD123003A0093
:10C6F0001C3343CA43C3FB68019AA3622300E5626B
:10C70000443343CA43C3019B1422DB680899236561
:10C710006565A01D0BF060FC2000142209993030E3
:10C720000BF05AFC6B461B880121A38023005D336C
:10C730001D70013B1D70D9702A00009809F015FB8F
:10C7400006002800002E0DD0236820009B68984723
:10C750000520112E06D0044B9E4202D00130072E38
:10C7600000D10420FEBDC04602300000FC3070B590
:10C77000C46B0500002C0DD124200BF0FAFB064BF6
:10C7800044608361054B8460C46004614461C4619A
:10C790000360E863E86B70BD9C8A0200548B020062
:10C7A0007FB503791548002B26D0154D154C2B78F5
:10C7B0002000002B20D102AE300009F0D8FA00286A
:10C7C00014D17388592B11D13378B288D91F01291C
:10C7D00002D800920C4A01E000920C4A202120006D
:10C7E00006F042FA01232B70200005E020220849C0
:10C7F00020000BF03BFDF7E704B070BD8D8E02000A
:10C80000D42D0020D52D0020A78E0200C48E02005A
:10C81000E98E020010B50400024B08C009F041FB8C
:10C82000200010BD288B020010B50400024B08C088
:10C8300009F037FB200010BDCC8A020010B50400BF
:10C84000024B08C009F02DFB200010BDBC8A02007D
:10C8500010B50400024B08C009F023FB200010BDF6
:10C86000AC8A020010B50400024B08C009F019FBA5
:10C87000200010BDDC8A020010B50400024B08C085
:10C8800009F00FFB200010BD9C8A020010B50400C7
:10C89000024B08C009F005FB200010BDF089020022
:10C8A00010B50400024B08C009F0FBFA200010BDCF
:10C8B000E089020010B50400024B08C009F0F1FA4B
:10C8C000200010BDD089020010B50400024B08C042
:10C8D00009F0E7FA200010BD008A020010B504003C
:10C8E000024B08C009F0DDFA200010BD188B0200D1
:10C8F000FC3070B5C46B0500002C0DD124200BF06A
:10C9000038FB064B44608361054B8460C46004615E
:10C910004461C4610360E863E86B70BD9C8A0200F7
:10C92000548B020010B50400044B036001F016FDA7
:10C93000200001F0FBFC200010BDC046F88C020076
:10C94000104B10B5083303600F4B0400C360802305
:10C950000E4A5B00C250C018FFF7E4FF20000C4BEA
:10C96000B830E360FFF7B0FF2000AC30FFF78EFF78
:10C970002000A030FFF794FF20006C30FFF79AFFF3
:10C98000200010BD808B0200FC8B02000C8D020089
:10C99000108A0200F0B50500040087B0AC356B6862
:10C9A000AB60AE68002E08D0F368210030009847D5
:10C9B000AB68002BF3D01B69F2E72000B03009F020
:10C9C00070FA2200FC235832117820000B401370BB
:10C9D000230056331E709E710A3009F05CFB200064
:10C9E000343009F058FB2000643009F05AFA200076
:10C9F000983009F056FA200001ADA43009F051FA40
:10CA000031000C2228000BF0F0FA23002A006C33CE
:10CA100083CA83C3094BE667A3670C223100280051
:10CA20000BF0E3FA2300803307CD07C33000044A3C
:10CA300090341A60266007B0F0BDC046A55D0200C4
:10CA4000975D0200F0B50026050089B003AC868032
:10CA50003100200009F028FB2100A81D14220BF052
:10CA6000BBFA31000C2220000BF0BFFA2B00220091
:10CA70001C3383CA83C30F4B3100AB62EE622000CC
:10CA8000019209F011FB2B002200303383CA83C3CB
:10CA9000019A03CA03C30C22310020000BF0A5FA4F
:10CAA0002B00443307CC07C33000034B6E652B6566
:10CAB00009B0F0BDC15D0200CF5D0200F0B597B0D6
:10CAC0000593036807AC1B680491039311002300CE
:10CAD0000600A1C9A1C30025D36829000C220CA817
:10CAE0000A9311AF0B950BF080FA094B290038001F
:10CAF0000F93109509F0D8FA059B22000093019737
:10CB00000CAB04993000039CA04717B0F0BDC046A1
:10CB1000CF5D020000487047282900200048704778
:10CB2000282900204B4AF0B50600C260A0224A4BDB
:10CB300016360833036001000023428204003200ED
:10CB400085B00371836003748382353113700132C1
:10CB500000259142FAD1802780222000D201BF0017
:10CB60001100F57737842B000095383001F092FBE7
:10CB700023002100403303931A002B005F31137010
:10CB8000013200259142FAD1039B2200DD77230078
:10CB900060331F809D70FC236432117820000B40AD
:10CBA0001370230068331D702C4B2900E366256742
:10CBB0000C2278300BF019FA2300270088331D600F
:10CBC000274B0837FB67843729000C2238000BF00D
:10CBD0000CFA244B244AFB602300A0333D611A6009
:10CBE000224A5D60DA60224A1D619A61DD6130008F
:10CBF00009F051FA039809F04EFA1E4B601CE360ED
:10CC00002300C4331D705D709D702600FF3001F05D
:10CC100077FB20001936FF361D30F5600822290009
:10CC2000FF300BF0E2F98C23134A5B00E250134B08
:10CC3000134A336180235B00E2502300012220006D
:10CC4000FE335242DA85023B5D639D63DD6305B0CE
:10CC5000F0BDC046108A0200808B0200D08902001D
:10CC6000A55D0200975D0200E0890200F0890200E4
:10CC7000008A0200FC8B0200BC890200D559020028
:10CC80000C8D020070B50C220D00002104000BF089
:10CC9000ACF900232361024B25602000E36070BDE6
:10CCA000B35D020070B500250400254B05710360DB
:10CCB000244B45718360244BC5604361234B8561E0
:10CCC0000362234B4562C362056329003830FFF7D6
:10CCD000D9FF200029004C30FFF7D4FF20002900A5
:10CCE0006030FFF7CFFF1B4B220023602300C432CC
:10CCF000743320C39342FCD126001D006536FF36F5
:10CD000028000822002108350BF06FF9AE42F7D158
:10CD10002100330000208531FF3101C300229942F8
:10CD2000FBD1C2235B00E2542100230097318733FB
:10CD3000FF33FF311A8002339942FBD1200070BDCE
:10CD4000EC8A0200AC8A0200BC8A0200CC8A020093
:10CD5000DC8A0200C88B0200F8B5002504000E0032
:10CD6000857105830C2229001C300BF03EF92A4BFB
:10CD70002000A36223003033E5621D70231DDD8790
:10CD800044300C2229000BF030F9244BA6652365B2
:10CD9000234B27002360230026005C336565603742
:10CDA0001D705D709D70DD70C0363800002109F087
:10CDB0007BF9BD82FD821837BE42F6D12500513580
:10CDC000FF352422002130000BF00FF9300024360B
:10CDD00009F076F9B542F4D1A82300215B00E150B7
:10CDE000B42223002000FC3352009965D9651966EE
:10CDF000596681306C61A150196759679967D96785
:10CE0000A3185C61FF30FFF73DFF20009530FF3035
:10CE100009F056F92000F8BDC15D0200CF5D0200A7
:10CE2000388B0200FC3070B5866B0500002E1CD1DB
:10CE3000B42080000BF09DF804000D4B8660436029
:10CE40000C4B466103610C4B0662C3610B4BC6621F
:10CE500083620B4B210003603430FFF77DFF20001D
:10CE6000ED30FF3009F0BCFDAC63A86B70BDC0466F
:10CE7000CC8A0200BC8A0200188B0200288B0200B8
:10CE8000888C020010B5054C2000FFF74BFE044AC9
:10CE9000044920000BF062F810BDC046282900208C
:10CEA0000028002041C9010070B500200C00FFF7E8
:10CEB00035FE03685B6A98472378142B17D002D895
:10CEC000132B05D03FE0152B18D0222B35D03AE09C
:10CED00064680122A37819005D0811402A40456862
:10CEE000DB065B0F002D2ED02088A8472BE083683F
:10CEF000002B28D06268917810881CE06468A278C2
:10CF000013091207120F012A02D0022A08D00DE0DD
:10CF1000013BDBB20021022B09D80C4AD15C06E0B0
:10CF20000421012B03D00131022B00D00021C36862
:10CF3000002B08D02088984705E00369002B02D019
:10CF4000626810889847002070BDC046F18E0200CC
:10CF5000014B18787047C046F62D0020F0B51E0032
:10CF60002F4B87B0009201931A78002305000C0024
:10CF70009A4252D102F022FE002801D00B234CE04D
:10CF8000002E0ED003A92220039609F077F900287D
:10CF900007D00623082840D01138434243410433C8
:10CFA0003BE0002302AA1000137001F0AFFE011E47
:10CFB000E4D101261B4F35403A783440B2432A432E
:10CFC0006300022514000720009AAC4302401C4372
:10CFD0001C23AA409C4314433C7003AC0C22200049
:10CFE0000BF003F80920104B3900039302AB052224
:10CFF000C01825710AF0F0FF21000C4801F0FAFE7C
:10D00000002807D00723042807D0013B082804D0B4
:10D01000053302E0019B1E700300180007B0F0BD4D
:10D02000F62D0020AC280020A9CE0100F52D00200F
:10D0300010B5074801F0AAFF0023984206D0073335
:10D04000042803D0013B082800D00533180010BD88
:10D05000F52D0020002373B501930F4B01AD1B7814
:10D060000E0029002B7002F0A9F9041E04D004233D
:10D0700005280FD007330DE03100280001F0F4FE41
:10D080002300002806D00723042803D0013B0828EA
:10D0900000D00533180076BDF52D002073B5104C77
:10D0A0000E0005000522210068460AF095FF012EBA
:10D0B00006D0022E11D1012223781343B34303E09B
:10D0C00002222378B343934369462800237009F072
:10D0D000D3F8031E02D00B2300E00223180076BD14
:10D0E000AC280020094B10B51A7801000923002A4A
:10D0F00009D0074801F0F0FE0023984203D0033323
:10D100000E2800D00333180010BDC046F62D0020B5
:10D11000F52D002013B504680093A46813000A00DD
:10D120000149A04716BDC046FFFF000037B506AC59
:10D130002578046801950093246913000A000149C9
:10D14000A0473EBDFFFF0000F0B589B00193070086
:10D150000FAB0D0016000021082202A81C780AF06F
:10D1600044FF0EAB1B8802AA1380019B0393002C83
:10D1700009D03100280009F097F8421E904103239E
:10D180004042034072E03B007A79C433A24211D995
:10D190000833190008390988B14209D130221C34FA
:10D1A000A4003F197B680133DB7F134227D101E0E4
:10D1B0000134EBE702AA3100280009F075F80C28C9
:10D1C00001D1032352E00C2808D80528F9D00728FC
:10D1D00013D00023984249D00B2347E010280CD0ED
:10D1E00003D808230F2841D0F6E7224B9842E8D015
:10D1F000D0239B019842E4D0EEE7042336E00222DC
:10D200000020DB06DB0F04ACD31AA370019B268041
:10D21000E3600EABA360184BA0809D4207D1FFF7DF
:10D220007DFC03681B69984709F0DFFE05002100BB
:10D23000280009F03DF883B2002B17D0181E1128E2
:10D2400013D0112B02D8082B06D007E00B4B9842C5
:10D250000BD00B4B984201D1062307E002AA310004
:10D26000280009F021F80028ABD10523180009B0E7
:10D27000F0BDC04602300000FFFF00000330000098
:10D2800001340000F0B5050097B008002E240B9182
:10D2900000F0F6F804ABE4181090220010A9012069
:10D2A00009F000F8002801D00320D9E023880B9A68
:10D2B0000A9093830B9B0A9A1B7D934253D96B79F7
:10D2C000132B01D90720CBE00B9B9B690C930A9B86
:10D2D0000C9A9B009C586369002B49D1638B002BEF
:10D2E00046D1631CDB7F022B42D137E06979A31C56
:10D2F0001831C90069180431621CDB7FD27F0891A4
:10D3000021002A310978002007912100293109786C
:10D3100006910D9905910C990491217F0391218B20
:10D320000291618B01916169009110A909F0E3F903
:10D330000028B9D16B7907001A001C32920018330B
:10D34000AA18DB005460EB189B88E3836B790133E8
:10D350006B71230028331B78BB4237D80A98013001
:10D36000C3B20A93A6E72B79002001332B7177E033
:10D37000200000F085F8002610900D960C962300F2
:10D3800028331B78B342B1D9626AB3009F58342264
:10D3900004AB9B1800221A700023002111AAD21896
:10D3A00001335170102BF8D1462204AB9B182D4A43
:10D3B00011A938001A8008F0E1FF002803D07B692A
:10D3C0000C937B8B0D93731CDEB2D8E7C2235B00FA
:10D3D000EB5C072B00D975E7626ABB009E580023FF
:10D3E000180011A90B70CA1801335070102BFAD114
:10D3F0001C4B30004B8208F0C1FF0C9000282CD150
:10D40000300000F03DF8C2225200AA5C738BC0329B
:10D410005200AA1806320292327F10900192328B8B
:10D4200010A9009272690C9809F01EFA002800D029
:10D430003AE7C2235B00EB5C1A0058329200C0331B
:10D44000AA185B005660EB18DB88C222F383C22364
:10D450005B00EB5C52000133AB54781CC7B278E739
:10D4600017B0F0BD012900000B68002B01D103604B
:10D4700002E0024B0360002343607047B55C02008A
:10D48000F0B5438A87B00293037804000126002B8D
:10D490003ED0244B24491A680393112301929C46E1
:10D4A00000228519019B934214D0674600235743FD
:10D4B000CF19981E012803D9FE5CE85C864207D18B
:10D4C0000133102BF5D111235A4389180E7C1FE02C
:10D4D0000132E7E7280009F0F7F823780700060093
:10D4E000002B01D112342500019B042B10D01124F4
:10D4F0005C430D4B10221C19290020000AF06CFD22
:10D500000023A370E370019B039A01332774136017
:10D5100005AB9E705888029B00040343180007B0B7
:10D52000F0BDC046642A0020F72D002007B501ABEE
:10D53000198019005A8009F0CCF9032310280CD067
:10D5400003D80023984208D006E00523112804D010
:10D55000034A013B904200D00B2318000EBDC04689
:10D56000023000000023010070B504000360037165
:10D57000421D15311370013200258A42FAD1200074
:10D580002900E58225766583A583E58325840C2221
:10D5900024300AF02AFD2000064B6563236329002E
:10D5A0000C2238300AF021FD034BA564200063648F
:10D5B00070BDC046D7680200E5680200024B0B60F0
:10D5C000092313607047C046F48E020070B5060050
:10D5D000A6B001AD0822002128000AF006FD0F4B7D
:10D5E00005AC019333006C33089306AB06CD06C33C
:10D5F0000B4BF33609930B4B210005930A4B13A8F1
:10D600000A933378237600F089FF13A80AF039FAD9
:10D610002000FEF7C1FD26B070BDC0468F6E02002F
:10D62000A36E0200A0890200EC8B020010B504007A
:10D630000020FFF773FA03681B6998470300020094
:10D640000749F3331C70FC321933D8605161002153
:10D650009161044AF4301A610AF02AF810BDC046FC
:10D66000CDD50100B96E0200012110B5044A0800B1
:10D6700002F088FC031E00D00B23180010BDC0462A
:10D680002DD60100F0B593B0019000200C00FFF7FB
:10D6900045FA03685B6A9847FFF75AFC06AB002817
:10D6A0000DD000221A7105AA0692082218001A73DA
:10D6B0000AAA9A60FFF716FD002802D052E01871FE
:10D6C000187300231F0023732371019BBA331B7847
:10D6D000BB4246D907237B43019AD218BB3212784A
:10D6E000022A31D1002506AE337BAB4236D9072062
:10D6F0007843AB000293019BAA001818089BBB302B
:10D70000995808F0BDFD00281BD0B368AA009A58AC
:10D71000237BA1689B005A50237B01332373337B07
:10D720005A1E954208D01049B2685B189B009B585E
:10D7300003930399029BD15006AA137B013B1373F9
:10D740000CE00135EDB2CEE701992279CB182168C2
:10D75000BB33920053502379013323717B1CDFB21A
:10D76000B3E7002013B0F0BDFFFFFF3FF0B59DB061
:10D770001F006B4605001A70581C0622229E02AC40
:10D780000AF02AFC002F07D03B8823807B88638027
:10D79000BB88A380FB8806E032232380DB186380EC
:10D7A000F533A780FF33E3800CAB04A9049314ABDB
:10D7B0008B602F000023B9370B710B733B78002B64
:10D7C00017D101203B78022708A903405A000B78A3
:10D7D000BB4304AF4F601343002E10D0B279834394
:10D7E000024013430B7033880B8173884B81B388DD
:10D7F00011E02800FFF746FF0028E2D029E02A00C8
:10D80000323212788343024013430B70AB8D0B818D
:10D81000EB8D4B812B8E220068468B8109F06EFACE
:10D8200003000020834214D00630082B11D005D805
:10D830000130042B0DD0834208D109E00520112BC3
:10D8400007D0054A934203D0102B01D00B2000E0F3
:10D8500004201DB0F0BDC0460232000070B50C00BF
:10D8600009789AB0022201293CD06388032904D1A7
:10D87000A03B0A009BB21D4903E00322203B1C4948
:10D880009BB28B422ED8A1881A4B0322994229D8E9
:10D890000AAB009312AB02936A4600230500137192
:10D8A0001373B8352B78002B04D06946FFF7EAFED6
:10D8B000021E17D104AE1822002130000AF095FB99
:10D8C0002378300033702B7833726B46F3606388B3
:10D8D0003382A388738209F0F7F9431E984103222B
:10D8E0004042024010001AB070BDC046603F0000C8
:10D8F000E03F0000FF3F000030B5002485B001ADDF
:10D900006B80089B2970EB80099B290010006C70CC
:10D91000AC80039309F0A8FBA04207D0053411287E
:10D9200004D0044BC018444244410634200005B0E2
:10D9300030BDC046FCCFFFFF70B5040086B0E36A7F
:10D940002363206B002807D0C36821009847236B0E
:10D95000002BF4D01B69F3E720002C3009F0AEFB5C
:10D960002000083009F0AAFB2000143009F0A6FBC3
:10D970002000203009F0A2FB20003430FFF762F8CD
:10D98000051E29D123009033187058709870D870F4
:10D99000C2235B00E050E218863BFF3B536093607C
:10D9A000D3601361CE225200A05022009D32FF327C
:10D9B00001AE53609360D360136101000C2230000C
:10D9C0000AF013FB2300B533FF3307CE07C3B5348A
:10D9D000034BFF34E3602561002006B070BDC046F4
:10D9E000B35D0200F0B591B0019106A904009C4618
:10D9F00010000B00E0C8E0C3D368654603930BAB8F
:10DA000018000293C8CDC8C020002700343005900C
:10DA100093373D780620002D3FD16046C3680493BC
:10DA200050239C46A444634645C945C3039B029AC0
:10DA3000E36523002566783343CA43C32000049A74
:10DA400016991A6004331D6014223A300AF0C4FAA1
:10DA500020001422179964300AF0BEFA6B469B88A6
:10DA6000012123872300903491331D702A002570F3
:10DA70000198397009F0F4FA04002800002C0CD049
:10DA8000059808F02BFB0520112C06D0044B9C4276
:10DA900002D00130072C00D1042011B0F0BDC046E7
:10DAA0000230000010B5A6B001AC08220021200011
:10DAB0000AF09BFA0B4B13A8089306AB06CC06C3DF
:10DAC000094B05A90993094B0593094B0A9300F0EB
:10DAD00025FD05A8FEF760FB13A809F0D2FF002082
:10DAE00026B010BDB1E70100D5590200A08902009F
:10DAF00090890200F0B505008BB001F097FA28007C
:10DB000009F0A1FB0020FFF709F8036806001B6974
:10DB10009847336804009B69300098473368009049
:10DB20005B6A300098470300288810380B2800D91A
:10DB3000BDE004F007FA0641BCBCBC7ABCBCBC81A9
:10DB4000BC9BAE88200031002F7D09F04BFA2200EB
:10DB500001216B7B583201931378A8798B434918C4
:10DB60000B431370023A1378E91D013313706A46B0
:10DB7000127904ABD8709A721E809F702B00062217
:10DB8000163305A809930AF027FA29000B2004ABE5
:10DB900006220E31C0180AF01FFA94346368A3609D
:10DBA000A068002800D182E0C36804A99847A36850
:10DBB000002BF3D01B69F2E740492000AF8809F041
:10DBC00011FAAB793000019333681B6A984706005D
:10DBD000ED30FF300622390008F0D4FF338FBB420E
:10DBE00004D13000736B34309B6898472200563262
:10DBF0001378013BDBB21370002B03D10221937821
:10DC00008B4393706A46127904AB1F809A70A034DC
:10DC10006368A360A068002849D0C36804A9984736
:10DC2000A368002BF4D01B69F3E75B69A91D002BE7
:10DC30003DD0A88898473AE0AE79002E05D1220061
:10DC40000121583213788B431370636E002B2ED052
:10DC5000A366A06E00282AD0C36831009847A36E3F
:10DC6000002B01D1636EF3E71B69F1E701260D2755
:10DC7000AB7BE91D5A07920F1E400192DB0806227A
:10DC800004A8EF5702930AF0A7F96A46127904AB89
:10DC90001A726A46127A9F715A72DE712B00200046
:10DCA0000F338C3407938030236804A998472900E8
:10DCB000009808F0EEFB0BB0F0BDC046FFFF00007F
:10DCC0001FB5A3238022DB00D205D3580820DB0731
:10DCD00000D405301D4B48221D4900F0C3FD00282B
:10DCE0000AD080B2002807D1BFF34F8F194A1A4BD0
:10DCF000DA60BFF34F8FFEE702AC0822002120005C
:10DD00000AF073F901232000237009F000FA0028BB
:10DD100001D0072017E0684609F0F7F90028F8D18C
:10DD2000694609F0F0F90028F3D10C4800F0CAFD6B
:10DD300080B2002807D10A4800F0CEFD80B200284A
:10DD400001D100F01FF804B010BDC046A5DA0100F3
:10DD5000682A00200400FA0500ED00E0F5DA010071
:10DD60001371020080B2002807D1BFF34F8F034A1E
:10DD7000034BDA60BFF34F8FFEE770470400FA05EC
:10DD800000ED00E01FB502AC0822002120000AF0DF
:10DD90002CF9282323806933FF336380E380803BA1
:10DDA00001A8FF3B05220C49037009F0BDF980B2C0
:10DDB00000280FD18020800009F0B2F980B200283D
:10DDC00008D1200009F0AEF980B2002802D109F094
:10DDD000A5F980B204B010BDFD8E0200F7B50600B3
:10DDE000182733687569002B1DD02B000322746837
:10DDF0005F337C431A700F4904222C1968460AF0DD
:10DE0000EBF8230074331B8801AA1380763423882F
:10DE100069465380A88809F0C8FA002809D0300064
:10DE200009F0C5FADDE75F352B78032B01D1023B02
:10DE30002B70F7BD5E8E0200F7B50600242733680D
:10DE40007469002B1CD0230004225F331A70042253
:10DE500075680F497D43C0358918684665190AF011
:10DE6000BBF86B8B01AA138001335380A0886946ED
:10DE700009F09BFA002809D0300009F0AAFADEE781
:10DE80005F342378042B01D1023B2370F7BDC046D9
:10DE90005E8E02007FB503005F331B780600032B04
:10DEA0002DD105002E4B0A685135FF359A4222D1FB
:10DEB0008968102268460AF08FF8280009F077FA7E
:10DEC00018234343F41823000122200060331A7002
:10DED00069460F3261300AF07FF8230022006E336A
:10DEE0001B786D3421781B0272320B43138028009B
:10DEF000FFF774FF33E0280009F059FA2FE0042BF4
:10DF00002DD10500174B0A686935FF359A4223D198
:10DF100089681022033168460AF05EF8280009F08B
:10DF200058FA24234343F418230001222000C43369
:10DF30001A7069460F32C5300AF04EF823002200ED
:10DF4000D2331B78D13421781B02D6320B43138095
:10DF50002800FFF771FF02E0280009F03AFA7FBDC0
:10DF600001001000010013000B68002B01D10360B9
:10DF700002E0024B0360002343607047B55C02007F
:10DF800073B505000800A9802900002402265E312F
:10DF90000C704E7001A90A804B8009F004FA102819
:10DFA0000ED005D8A04210D00634082809D005E0CC
:10DFB0000524112805D0064B984201D00B2400E01F
:10DFC00004242100280009F0B1F8200076BDC046E5
:10DFD00002300000F0B5040018268DB023005F3336
:10DFE00000931B78012B76D1250020005C355D3035
:10DFF0002B780278934255D20021A71D07A808F07C
:10E0000053F807A9380008F0B9F900280BD12B788C
:10E0100038001900714360316118019308F0AEF9BE
:10E02000019B00283BD027001C37390003A8FFF7CD
:10E030009BFF039B002B03D10122049B134211D0B1
:10E04000002107A808F030F8200007A9303008F0B8
:10E0500095F9002806D0297838007143603161189D
:10E06000A36A9847009B1F78012F17D1210005A8AC
:10E070004431FFF779FF059B002B02D1069B3B4201
:10E080000CD02A78A1887243A21813007432763318
:10E090001B8812882000FFF773FF9FE72B7801335E
:10E0A0002B709BE7002A16D0002B14D01822013BBE
:10E0B00053430022E31876331988084B02702A7004
:10E0C000994203D1200008F009F804E0A08809F083
:10E0D00068F90028F6D10DB0F0BDC046FFFF000082
:10E0E0000300F0B55F3397B002931B780400022B56
:10E0F00000D0CAE003009533FF33242200210DA88D
:10E10000019309F072FF0DA807F0DAFF0DA901983D
:10E1100008F0EFFB011E35D123005E331B78002B86
:10E1200030D02300D9222600DA331B885200013B6D
:10E13000A352303608A807F0B7FF08A9300008F04E
:10E140001DF9051E11D121009931FF31300008F071
:10E1500015F9002816D029000DA807F0A5FFA01D6D
:10E160000DA908F00BF900280CD125004435290031
:10E1700004A8FFF7F9FE049B002B00D07BE0059B71
:10E18000DB0778D4002527005E373E78B54249D2B8
:10E19000029B1B78022B78D1731E9D4209D124214A
:10E1A0004D432900C03161182222019809F014FF63
:10E1B00038E0242324226B43C033E7186B1C5343FD
:10E1C000C033E3185B8B0021013BFB83230008A8CD
:10E1D0003033039307F068FF08A9039808F0CEF8DE
:10E1E000061E0FD1391D039808F0C8F8002816D074
:10E1F00031000DA807F058FFA01D0DA908F0BEF8CA
:10E2000000280CD126004436310006A8FFF7ACFEEA
:10E21000069B002B34D10122079B134230D10135DC
:10E22000EDB2B0E7029B1B78022B2ED1002E08D056
:10E230002233013E5E43C036A619B38B01339BB235
:10E2400000E0134B22005C32117818224A4300216F
:10E25000A218763212883970934208D20DA90B8029
:10E260004A80A08809F09FF800280ED00B212000DA
:10E2700008F05CFF09E00199280009F06EF981E7D8
:10E280003900300009F069F9C9E717B0F0BDC046A0
:10E29000FFFF0000F7B5FA26B6007143009308AB04
:10E2A0001B780400080015491700019303F054FE81
:10E2B00085B2300025807843104903F04DFE6B464F
:10E2C0001B8880B2A3806B461B796080A371032DED
:10E2D00001D80423238080232288DB019A4200D9BD
:10E2E0002380032801D80422628062889A4202D9DE
:10E2F0008023DB0163802000FEBDC0467102000068
:10E30000084B10B508330360002343608360C3608B
:10E31000040000F017F80449206109F0E8F9200032
:10E3200010BDC046C08C02006F76020010B504001C
:10E33000034B0833036009F0A7F9200010BDC04665
:10E34000C08C020000487047E88C020010B50248FB
:10E3500009F0D6F910BDC046E88C020010B50400E3
:10E3600009F092F900236362014BA36210BDC0461D
:10E37000D559020010B50400044B0360FFF7EEFF0F
:10E380002000FFF7D3FF200010BDC046F88C02002C
:10E3900037B50F4C2368002B17D1142009F0E9FD85
:10E3A000050009F0E7FB0823042225600193053BE3
:10E3B000009311004133280009F00FFC002804D11C
:10E3C000044A6921044809F0D0FB20683EBDC046DC
:10E3D000B82A0020038F0200338F0200F8B50D0029
:10E3E000082700210400061D3A00C16001613000C9
:10E3F00009F0FBFD0B4B291D23600B4B3A006361B9
:10E40000EB683000E36009F0E7FD290020002B698C
:10E41000183123616B69183063611B6898472000CD
:10E42000F8BDC046A08902009089020010B5040022
:10E4300002C01100FFF7D2FF044B2200E363002368
:10E440004832236463642000137010BD6606000028
:10E45000036A10B50400002B04D1054A8821054841
:10E4600009F083FB0021200009F0D4F9006810BDF9
:10E47000AC8F0200D58F0200020070B500230400AB
:10E4800008262C3203604360036183604361C360EC
:10E490008661E061436283621370036205689D4296
:10E4A00005D00E4AD7210E4809F05FFB14E0310079
:10E4B000042009F035FB04210323A060636021617F
:10E4C0002B00E160A66165612A00200009F02EFAA8
:10E4D00020602368002BE4D0200070BD4390020030
:10E4E0007690020070B50C4C2368002B11D10420EB
:10E4F00009F03FFD050009F02DFA256009F089FCBF
:10E5000023681D6809F091FC236868621B685A6AD9
:10E510009A62206870BDC046C02A002070B50E0007
:10E5200004008EB0FFF7DEFF084B31001D6868461F
:10E53000FFF754FF6A4629002000FFF777FF68467F
:10E54000FDF72AFE20000EB070BDC046C02A002094
:10E550000123F0B5534A91B011680400194200D16B
:10E560001360514A1168194201D10123136026003A
:10E5700000232C36337001933378002B00D08EE0CB
:10E5800009F053FC050000F0C9F8236A002B33D0D2
:10E590002000FFF75DFF616AC36B826BEB1891424D
:10E5A00004D8934206D88B4226D803E08B4223D26C
:10E5B000934221D9236A0190002B14D000F0AEF8C9
:10E5C000226A0021013A2262200009F030F920007D
:10E5D00009F047F9236A012B03D90021200009F033
:10E5E00052F900F0C9F8019B29009A6B606A09F0A2
:10E5F000E6F80125606214E0236A002B39D0200080
:10E60000FFF726FF876B2900606A3A0009F0D7F808
:10E6100039006062280009F00CFC09F006FC0025B6
:10E62000A06200F0A9F8002DA6D0019AD36B916BDF
:10E630005B08CB1AA362136C002B05D0CB18936335
:10E6400001A9200009F091F901990B69002B02D072
:10E65000CB68002B11D1019D2F6C002F8CD128008D
:10E66000FDF79AFDFFF794FE290009F086FA01975D
:10E6700082E7656209F0D1FBCFE702A8FFF7AEFEA3
:10E6800009F0D3FB02A8FDF787FD019B1A00191DB5
:10E6900018321D69D868A84709F0C7FBDBE7206A74
:10E6A00011B0F0BDBC2A0020C42A002010B5FFF72D
:10E6B00019FF034B1B681868FFF74AFF10BDC046DF
:10E6C000C02A0020F0B591B0060002A817001D0076
:10E6D000FFF784FEFFF75CFE09F09CFA7F19041E29
:10E6E00004D10C4A44210C4809F03FFA02A9200049
:10E6F000FFF774FE169BA7635B00E363256402A823
:10E700000194FDF749FD01A9300009F02EF90198A7
:10E7100011B0F0BDDA900200338F0200134BF7B551
:10E720001A681D00002A03D01A6801321A601CE022
:10E73000EFF310840E4E002C10D16B46DF1D380015
:10E7400009F0ACF9002808D13F78012F05D130003D
:10E7500009F0A0F9074B1F7004E072B60023054AC8
:10E76000346013702B6801332B60F7BDC82A00207A
:10E77000CC2A00203B2E00200A4B10B51A68013A23
:10E780001A601B68002B0CD1074B1A78074B002A24
:10E7900004D01878C0B209F07FF902E01B6883F357
:10E7A000108810BDC82A00203B2E0020CC2A002053
:10E7B000F0B5274B85B01B78002B47D0254D264E52
:10E7C0002B6834685A425341DBB2009363425C4188
:10E7D000E4B2009B002B37D103A809F09DFA05286D
:10E7E0000AD0002804D000221100FFF7BBFA05E090
:10E7F00003982B68984701E001230093002C1FD158
:10E80000164B03A91B8801240B80154B1B681800AD
:10E81000019309F087FA071E052F0BD0002805D0B9
:10E8200000221100FFF79EFA002403E001983368EC
:10E8300098473C00009B002BCED0002CC9D005E0AF
:10E84000009B002BC8D001E0002CD9D005B0F0BD52
:10E850003C2E0020D42A0020D82A0020C42D0020DD
:10E86000D02A002070B504000720002913D08D079E
:10E8700011D109480160094920000A80084A094964
:10E88000136009F04BFA002805D10122064B16301F
:10E890001A7009F03FFA70BDD02A0020C42D002064
:10E8A000DC2A0020297D02003C2E002010B509F052
:10E8B00037FA03005A1E9341014ADBB2137010BDB0
:10E8C0003C2E00200E23002802D0024B18600023AB
:10E8D00018007047D82A00200E23002802D0024BCF
:10E8E0001860002318007047D42A0020074B10B589
:10E8F0001B68002B07D09847002806D00022110083
:10E90000FFF730FA01E0FFF753FF10BDDC2A0020CB
:10E91000F0B58BB004AB9C1D0E230C22039001912B
:10E9200023804B7806A95343234AD3181889220021
:10E93000032309F007FA00283AD11827019B1F4D3D
:10E940005B7826885F4300933B000833EB18320066
:10E9500006A91800029309F030FB2C0000280DD105
:10E960000C22009B5343144AD318997A022319406E
:10E970001ED1E819182209F038FB19E0E81943689C
:10E980000F4F002B00D10F4F18250322009B06A923
:10E990006B43E250E3185E603200029809F01CFB02
:10E9A000019B2A0059780398694338236118B847B6
:10E9B00000200BB0F0BDC046C62D0020342B002037
:10E9C000CDFD010055FD0100F0B585B004000E003D
:10E9D00002AA8178214801F097F900283CD10C2344
:10E9E00061781F4A4B43D3189B7A01921D4F5B06F7
:10E9F00005D4022E03D01C4F012E00D01B4F1C2526
:10EA0000A1781B4B69432A00591802A80023B84774
:10EA1000002813D1022E1FD00C234021627802A8B7
:10EA20005343019AD3189A7A8A439A726178114BA8
:10EA300069432A0059182B00B84701E0022E0BD079
:10EA40000C232278210053430B4A02A8D3189B7A47
:10EA50000A4A9B009B58984705B0F0BD5C2B0020EC
:10EA6000C62D0020CDFD010055FD0100497D0200AD
:10EA7000E02A0020182B00204C2B0020288D0200BB
:10EA8000F7B518220190437826485A4381184C68FC
:10EA9000254F002C0FD00C2159437918897A4DB29B
:10EAA000002D07DA490605D415000835A6B2451928
:10EAB000145802E00024260025000C225343FB18C2
:10EAC000188932002300290009F03AF90B2816D1E1
:10EAD0000C22019B29005B785343FB1818893200F4
:10EAE000012309F02DF90C21019B104A5B784B435F
:10EAF000FF18388909F022F9002806D111E0002812
:10EB000000D00B48012C0CD1EDE70222094BC318B1
:10EB1000934305D0082803D0112801D0002000E03D
:10EB20000348FEBD342B0020C62D0020FFFF00004F
:10EB300041800000FECFFFFFF8B507004878182499
:10EB400003006343084D0E00E81822003823390003
:10EB500001F078F9002806D173785C432C196368BA
:10EB6000013300D16060F8BD342B002070B51C2447
:10EB700044430D4E0500301906223419002111308E
:10EB800009F033FA10220021200009F02EFAFF23A9
:10EB90002374A376013BFF3B23830233AB40034A3C
:10EBA00011689943116070BDE02A0020582B0020A5
:10EBB00037B581B205006A46074801F0A5F8041E82
:10EBC00008D15421684601F089F9041E02D12800B9
:10EBD000FFF7CCFF20003EBD5C2B0020F0B51D00F0
:10EBE000434B93B01B6801900F001600002B7CD0A4
:10EBF000189B542B79D8FF22002403AB5A709A70CB
:10EC0000DA701C7002AB1C74189B0B950A93A1B2AE
:10EC100004AA384801F078F8002809D1082204A98C
:10EC2000019809F0CAF9002802D103AB9C7002E0F8
:10EC30000134022CEBD103ACA178FF2955D0032F6E
:10EC40000AD1189A06AB542A01D1343A00E0402286
:10EC50001A701A7803213AE0274BEB1A372B10D899
:10EC6000264B002E04D101228A40186810423CD065
:10EC700001228A40196891432022196006AB1A705C
:10EC800020E01F4BEB1A1B2B09D8202206AB1A7071
:10EC9000002363700CAB0B9318230A9312E01948FE
:10ECA0002D1A172D21D8302302AA13740023637064
:10ECB0000133E370144B997A0223194002D11822D0
:10ECC00009F093F906AB022F0CD101211A780A43FF
:10ECD0001A7009AB0793064B32001B6806A9200087
:10ECE000984702E01A780221F1E713B0F0BDC04660
:10ECF0004C2B00205C2B0020E02A0020582B002009
:10ED0000182B0020342B0020C62D0020F0B5050064
:10ED100085B0002858D00127002601242C4B2D480F
:10ED20007F421E605E729E7231000781C7720722A9
:10ED3000847209F05AF931001822274809F055F970
:10ED40003000FFF713FFFF23244E20003370FFF73E
:10ED50000DFF54236A4677709380214F523BD38036
:10ED6000204B39006846009300F06AFF00282CD140
:10ED70001D4B1C702C781D00002C1BD11C27A1B230
:10ED800002AA174800F0C0FF061E0CD13B006343E7
:10ED900016481C22C01802A9330001F053F80028BD
:10EDA00004D02E7011E000232B700EE00134022CF1
:10EDB0000BD0E4E76B466A469B88D18838005943FC
:10EDC00089B201F08BF800E0094805B0F0BDC046FB
:10EDD0004C2B0020C62D0020342B00203D2E00207F
:10EDE0005C2B0020DDEB01003F2E0020E02A0020FC
:10EDF0000E800000F8B5174B06001B780F00002BA3
:10EE000022D0002822D0002920D00B68002B1DD052
:10EE1000114D2C68002C1BD12800053108C005229B
:10EE200009F0DAF83B790220AB72012304212A7A37
:10EE30009A4302438A432A72EA79134303438B437A
:10EE4000EB712000347004E0044802E0044800E064
:10EE50000448F8BD3F2E00204C2B00200880000005
:10EE60000E80000004800000154B1B78002B22D080
:10EE700000281ED000291CD00378002B1BD1114B79
:10EE80001B68002B17D04278002A16D10E4B9B7AB4
:10EE9000012B12D02420184003D0012310000B7046
:10EEA0000CE05BB2002B02DA02230B7006E0087064
:10EEB00004E0064802E0064800E006487047C04605
:10EEC0003F2E00204C2B0020C62D00200E8000007D
:10EED0000880000010800000254BF0B51B78002B47
:10EEE00026D0002822D0002920D00B68002B1DD06E
:10EEF0008B68002B1AD00378002B19D11D4A126899
:10EF0000002A15D018001C001B4A10321B4DEF7A46
:10EF10009F420FD1AF7A02252F420BD001331C3212
:10EF2000022BF3D108730C71002020E014481EE07E
:10EF300014481CE00F7BB8420DD20125977A2F426E
:10EF400009D1113DAC46944466468D6887007E51D8
:10EF50000D4D2B5401300F79BC42DFD20225977A38
:10EF60002F42DBD10D68A7007A510134D6E7F0BDFE
:10EF70003F2E00204C2B0020E02A0020C62D002030
:10EF80000E800000088000003D2E0020104B10B5C0
:10EF90001B78002B1AD0002816D00078002815D135
:10EFA0000C4B1B68002B11D00B4B9A7E1C00FF2AC8
:10EFB00001D0FFF7FDFD230036331B78FF2B06D071
:10EFC0000120FFF7F5FD02E0044800E0044810BD11
:10EFD0003F2E00204C2B0020E02A00200E80000055
:10EFE0000880000013B5040081786A460B4800F0E1
:10EFF0008BFE002810D11C226078094B50436946D3
:10F000001818130000F01EFF064B074A9B7A2100D8
:10F010009B009B586846984713BDC0465C2B002058
:10F02000182B00204C2B0020388D0200FF23F0B558
:10F03000C14A8FB0127800900393002A00D1B7E143
:10F04000BE4A11680192002900D1B1E104AD6B7094
:10F05000AB70EB70030005AF04337B602A23002202
:10F060003B8103882A70B64C102B0AD0A67AB207CF
:10F0700069D58288B3498A4208D02189914262D1F8
:10F0800004E00121A37A0B4205D191E1E27AAA7052
:10F0900000226A7057E011233B70009B6A709B88C6
:10F0A000072223810223A372009B20009E1D3100B2
:10F0B00008F092FF0122009B5B7D134206D0A24A1A
:10F0C0005B08D35CFF2B33D0039331E09F4C0722C6
:10F0D00020003100103008F070FF002808D0200018
:10F0E00007222C30310008F068FF002806D10130DB
:10F0F00003901DE0009BDB7903423ED10022019B7F
:10F1000005AC1B682100280098472378122B00D0FB
:10F110004EE18B48837A012B00D149E101238372B0
:10F12000023B0381C3720722002108F05EFF3FE12A
:10F130000A21039B824ADBB2D37291722800AB7022
:10F14000FFF750FFDAE7172B49D1012214240420DE
:10F15000019B01995B7A864393434B72784B05A9D7
:10F160000C7000999E728C791900002CC2D0D87A4C
:10F17000FFF71EFD009B9A79C1E7AB78FF2BBDD04E
:10F180000820064300988E72C07A800706D51C209E
:10F1900058436E4C2018847E94438476CA7AFF2AA2
:10F1A000ACD01C220878694C5A4302280AD0A41813
:10F1B00020000722103008F00FFF0222A37E9343A5
:10F1C000A37607E00121A318614A528A1A839A7E26
:10F1D0008A439A7601212800FFF7F6FB8EE7172B6A
:10F1E00000D999E0132B54D13B7004233343A3720D
:10F1F000E37AFF2B25D1554B9B7EFF2B06D0534B3B
:10F20000012636331B78FF2B28D100E000261C2076
:10F2100023787043022B09D04C4B07221818FD238A
:10F2200021008376103008F0D7FE03E0474B181812
:10F23000FE23837603AB1E70039BDBB2AB70E372DD
:10F240000AE0162343480E22002108303B7008F0E4
:10F25000CCFE44231E43A672002400E03E4C002155
:10F26000374B0B91DA7A1C235343384A0D91D3184C
:10F270000C93374B09910893019B0A911A1D009B2F
:10F28000988808AB08F056FD002800D090E02200D6
:10F2900035E7142B24D1E37A2C4FFF2B14D1009B9C
:10F2A0003A8BDB899A4204D0BA8E9A420CD1012360
:10F2B00000E00023082203931643DBB2E372A67238
:10F2C0002800AB70FFF78EFEE37A2149FF2B00D1B7
:10F2D0000021009B3A009888002308F02DFD67E08C
:10F2E000112B65D1022332009A431300A272320718
:10F2F00007D55BB2002B0BDA00212800FFF764FB77
:10F3000006E0A878FF2803D0FFF730FCFF23AB709E
:10F310001023A372023302E01C2B02D113233B7093
:10F32000ECE6522B1CD1019B0C4A9B7A28009B00D7
:10F330009B5898473CE0C0463F2E00204C2B0020B5
:10F34000C62D0020FFFF00003D2E0020E02A0020F7
:10F35000182B0020342B002043800000188D020061
:10F36000182B25D1009B9B79112B13D1330711D575
:10F3700010480E220021083008F037FE1623022222
:10F380003B704A331E43019BA6725B7A1343019A7A
:10F390005372B3E680235B421E4395333B70019B5F
:10F3A000A6729B7A044A9B009B5828009847A5E6C2
:10F3B0000FB0F0BD342B0020188D020030B50029AD
:10F3C00012D00A78002A11D10A4B1B68002B0DD0ED
:10F3D000FF23094C8B702589FA3B854207D14A707F
:10F3E000E37A8B70130002E0044B00E0044B18003A
:10F3F00030BDC0464C2B0020C62D00200E800000E2
:10F400000880000010B5064B586980235B05421C3C
:10F4100004D0196989B202F09FFD00E0586910BD5F
:10F4200000100010034B10B51B78034A9B009B583B
:10F43000984710BD402E0020488D02000B0037B5C4
:10F440000C24020018009D6809786C43044D0830B4
:10F450002D680095034D1B696459A04737BDC04610
:10F46000AC2B0020982B0020802252051169142219
:10F4700010B50E4889B203785343C3181A69501E59
:10F48000DA881B898018C01802F066FD084B02005C
:10F490001B6801209A4207D800209A4204D1054BEC
:10F4A0001B6858425841C0B210BDC046642B0020B2
:10F4B000902B0020942B0020082310B5034A1168DC
:10F4C00099431160FFF7AEFF10BDC046A42B00208A
:10F4D000094A10B5136819070AD4990702D5012102
:10F4E0000B4313600222054B1A70FFF79BFF01E0EC
:10F4F000FFF7E2FF10BDC046A42B0020402E0020E5
:10F50000064B10B51B681B0705D40122044B1A706B
:10F51000FFF788FF01E0FFF7CFFF10BDA42B00200D
:10F52000402E002010B5002814D0112805D1082342
:10F53000094A11680B4313600CE01423074A117841
:10F54000594351180431FFF779FF0422044B1A7014
:10F5500000F092F810BDC046A42B0020642B0020C0
:10F56000412E0020F8B514238025124A6D05147829
:10F57000114E5C432B691419E2889BB227892069DC
:10F580009A420ED92B6961699BB2D31A2A6938183D
:10F5900092B2C918C018920808F0F4FB2B699BB20C
:10F5A00005E092083818616908F0ECFBE3883360E5
:10F5B000F8BDC046642B0020B82B002070B5802514
:10F5C000094B6D052A691C68631E94B25C43FFF702
:10F5D00019FF2B69411E9BB25943044B20001A6846
:10F5E00008F0D0FB70BDC046902B0020B42B00204B
:10F5F000142270B580260E4976050B785343CB183C
:10F600001A89DC881B69A4183169E418200089B2C2
:10F6100002F028FD0D00FFF7F5FE3369411E9BB295
:10F620005943044B49191A68200008F0ABFB70BD20
:10F63000642B0020942B002010B5FFF7E3FE8022FE
:10F64000074C520513691169126924689BB292B282
:10F6500089B2013892086143584308F093FB10BD0A
:10F66000902B002010B5034B186808F089FBFFF7BA
:10F6700059FF10BD902B0020F0B52B4B85B01878AA
:10F6800003284ED802F05EFC020E114B0023274ADD
:10F690001360274A1360274B5B78002B41D000F0A2
:10F6A000F9F83EE0FFF75EFF3BE0234C802723683C
:10F6B0007F0501930123019A9A4314232260029249
:10F6C0001C4A3969157889B25D4355192B691800B0
:10F6D000039302F041FC194B039A18603969EB88D7
:10F6E0000600501E181889B202F036FC864203D17B
:10F6F0000223029A134303E00323019A9A4313005F
:10F7000023600F4B1A680F4B002A03D12168023285
:10F71000114200D000221A70FFF784FE01E0FFF7CB
:10F72000A1FF05B0F0BDC046412E0020B02B002047
:10F73000B82B0020642B0020A42B0020902B00204D
:10F74000B42B0020402E00201422F0B580254B4918
:10F750004B480B7885B05343CB18DF68083A7A439F
:10F76000821814895089526860436D05821829698E
:10F770001C890192DA881E6913199B1900930023D2
:10F780000292404A89B21360300002F06BFC3D4B9C
:10F790002A00039300290BD12B6902999BB299424D
:10F7A00008D0019B00998B424FD1002C59D101E028
:10F7B000022F08D11169300089B202F0CDFB324B23
:10F7C000186003233BE02969301989B202F04AFC32
:10F7D0002E4B89081960009A019B296993422DD00C
:10F7E00089B2009802F03EFC002927D080246B46A5
:10F7F00064052169988889B21F8802F0ADFB2669EB
:10F800000500B1B2380002F0A7FBADB280B285426C
:10F8100008D16B466A469B8812889B1A039A9B08FC
:10F8200013600BE023692169380089B29CB202F0B1
:10F8300019FC89B2641A039BA4081C600223144AB1
:10F840001370FFF719FF05B0F0BD022FB2D0296980
:10F85000301989B202F006FC0C4B8908196029693D
:10F86000BEE7022FA6D02969301989B202F0FAFB4F
:10F87000064B890819602B69E0E7C046642B00201D
:10F88000982B0020942B0020902B0020B42B0020DC
:10F89000412E0020142210B50A490B785343CB188F
:10F8A000D988094A1B791160032B08D0042B06D094
:10F8B000012B06D1054A1370FFF7DEFE01E0FFF7CA
:10F8C00043FF10BD642B0020AC2B0020412E0020F4
:10F8D000F7B5124D01936E7808AC27880424022EE8
:10F8E0001AD02C78A419012C00DD023C14235C43AF
:10F8F0002C196261220020710C3209C909C26B46C1
:10F900009B882781E3800024054B01361B786E70AD
:10F91000A34201D1FFF7BEFF2000FEBD642B0020F3
:10F92000412E002070B51424114D00202978614328
:10F9300069180431FFF782FD230000220120297895
:10F940004B43EB181A71DA80D8601A615A611A8138
:10F950006B780918013B6B70CBB2022B01D02B7076
:10F9600000E02A70034B1A70FFF786FE70BDC04698
:10F97000642B0020412E0020142210B507490B787B
:10F980005343CB181B79042B02D0FFF7CBFF04E0C5
:10F990000122034B1A70FFF76FFE10BD642B00208D
:10F9A000412E0020F8B508241D4F3D682C4022D17F
:10F9B00080235B0519691B4B1E68002E1ED0142284
:10F9C000194889B203785343C3181A69501EDA885C
:10F9D0001B898018C01802F0BFFA144B1B689842AC
:10F9E0000CD1134B1C6001231D43124B3D601C7056
:10F9F000FFF718FD13E0FFF75FFD10E0FFF734FDA0
:10FA0000002804D000220A4B1A60023202E0002EC5
:10FA100003D00322074B1A70EAE7FFF7ADFFF8BDEA
:10FA2000A42B0020942B0020642B0020902B00207E
:10FA3000B42B0020402E0020054B10B51B681B077F
:10FA400002D4FFF799FF01E0FFF736FD10BDC04675
:10FA5000A42B002070B5154D2C68230723D4144A1D
:10FA6000136801331360134B04221B68002B04D16D
:10FA7000FFF7FAFC002802D002220F4B0CE00F4BDC
:10FA80001B68002B0CD0012122000B4B0A4002D135
:10FA90000C432C6000E003221A70FFF7C3FC04E063
:10FAA000FFF76AFF01E0FFF707FD70BDA42B002000
:10FAB000902B0020B42B0020402E0020942B0020FF
:10FAC0001E4B10B51B78022B30D0032B19D0012B05
:10FAD00032D108211A4A13680B4222D11423194942
:10FAE0000A785A43184B8A181968D3885B1A9BB254
:10FAF000D380002B02D1FFF715FF1DE0FFF732FD89
:10FB00001AE008210E4A13680B420AD10F4A136803
:10FB100001331360FFF7A8FC002804D1FFF72CFF86
:10FB20000AE08B431360FFF7A7FD05E0084B094A85
:10FB30001B789B009B58984710BDC046412E002063
:10FB4000A42B0020642B0020B82B0020902B002039
:10FB5000402E00205C8D020070B5144C04252278E4
:10FB60001300AB4321D002281DD003281DD1104B18
:10FB70001B681B0717D40F490B6801330B60032B5D
:10FB800004D0022A0CD1FFF74DFC0EE014230A4AE0
:10FB90000D201178594351180431FFF74FFC25709F
:10FBA000FFF76AFD01E0FFF78BFF70BD412E0020DB
:10FBB000A42B0020B02B0020642B002010B50122C4
:10FBC0000024164B1C705C701C71DC80DA601C61B8
:10FBD0005C611C811C765C831A625C629C629C8303
:10FBE0000F4B1C80FFF70EFC802304225B051B6972
:10FBF00002389BB258430B4B18600B4B20001C6023
:10FC00000A4B1C601C815C81094B1C70094B1C60F9
:10FC1000094B1C60094B1A6010BDC046642B0020C4
:10FC2000D22D0020A82B0020902B0020982B002004
:10FC3000412E0020B02B0020B82B0020A42B002048
:10FC4000F7B504222C4B04001B680E000820134259
:10FC500051D00630002C4ED000294CD02368002B08
:10FC600049D080277F053A69A38892B2934201D98F
:10FC7000072040E00F2BFBD9E288002AF8D01F496B
:10FC800053430D685B190093FFF7BCFB3B690138D8
:10FC90009BB25843194B0193009B8342E8D8A38839
:10FCA0009C469B07E4D1164B04201F88012F22D0CD
:10FCB0000C237B43134A2068D11898506346802058
:10FCC000376075604D600B81E288400503694A81A9
:10FCD00001690469604650439BB2C018013889B27B
:10FCE00002F0C4F9A4B2604345190020019B01371A
:10FCF0001D60034B1F80FEBDA42B0020A82B0020FD
:10FD0000D22D0020982B0020104B30B51C68082302
:10FD1000640719D50633002816D0002A14D00368CA
:10FD2000002B10D10A4D2C68002C0CD02C89406877
:10FD3000614309186889444368682418A14202D2C3
:10FD40001360516000E00723180030BDA42B002091
:10FD5000982B0020F0B504001A4885B005680820EB
:10FD60006D072DD5063000292AD0002C28D0256813
:10FD70000738002D24D1144D2E68002E20D066683F
:10FD800003962E896F896D687743BC46039F65444F
:10FD9000AF4215D2002A13D0964211D3D518AE42E5
:10FDA0000EDB0325093029420AD12B4208D12F420C
:10FDB00006D100930F3813000A002100FFF788FDD9
:10FDC00005B0F0BDA42B0020982B0020F0B5040056
:10FDD0001A4885B0056808206D072DD50630002922
:10FDE0002AD0002C28D025680738002D24D1144DA6
:10FDF0002E68002E20D0666803962E896F896D6864
:10FE00007743BC46039F6544AF4215D2002A13D006
:10FE1000964211D3D518AE420EDB03250930294294
:10FE20000AD12B4208D12F4206D100930C3813007F
:10FE30000A002100FFF74CFD05B0F0BDA42B002007
:10FE4000982B0020F0B51700224A85B01268029066
:10FE50000E009C460824530739D50634002936D0B5
:10FE6000002834D00C68002C2ED11B4D2A68002AA3
:10FE70002AD04A68688929896B684843C018824239
:10FE800022D2002F20D0B9421ED36346F8188142F7
:10FE90001ADB0321029B0B4218D163460B4215D19A
:10FEA0001140039112D16244110002983A0008F007
:10FEB00093F80C233268009753430221ED58039ABC
:10FEC000029B3000A84702E0072400E01024200035
:10FED00005B0F0BDA42B0020982B0020F0B51F4BDF
:10FEE00085B01B6805000E0008245B0733D5063477
:10FEF000002830D00368073C002B2CD1184B1A681F
:10FF0000002A28D01A894768029258685B895343AF
:10FF10001B1803939F421ED20934BB071BD1381A0A
:10FF2000110002F09FF8093C002914D10299300019
:10FF300002F098F889B200290DD1002E0BD0039A57
:10FF4000F3199A4207D300223300009229000320BC
:10FF5000FFF7BEFC0400200005B0F0BDA42B00207C
:10FF6000982B00200120054A10B513785840044B07
:10FF700010701B68002B00D0984710BD422E002047
:10FF8000BC2B00200C4B70B5050015200C001A602E
:10FF900007F012FF00280ED12900153007F00EFFE0
:10FFA000002808D1153007F005FF002803D12100F3
:10FFB000033007F005FF70BDBC2B00200848026825
:10FFC00003210A4302600749074A084B9B1A03DDD5
:10FFD000043BC858D050FBDC054880470548004723
:10FFE000240500406491020000280020C42800205D
:10FFF000E102020021C10100FEE7FEE7FEE7FEE7A5
:020000022000DC
:10000000FEE7FEE70A480B4982680B4B002A08D03E
:100010001A6801321A6000228260D2220220920005
:100020008850064A1B688858190A1B0618437047EF
:10003000FC10014000100140482E00200405000083
:10004000F8B51D4CA368002B0AD01C4A0221136886
:10005000013313600023A360D223194A9B00D150BF
:10006000636C174D002B19D0164E3378002B15D02A
:10007000154B1F6807F0A6FE3F1A002F0EDC00216B
:100080000D4BD2225964802392005B02AB50317039
:10009000C22189006B50AB50FEF758F9A36C002BBE
:1000A00008D00022044B80219A64D223044A89029A
:1000B0009B00D150F8BDC046FC100140482E0020E6
:1000C00000100140442E0020C02B002030B5194CF8
:1000D0002378002B2CD1A121C420174AC9005350EA
:1000E000C1390233FF39535044395350134980000A
:1000F0000D58134B2B40C0252D022B430B50802352
:1001000091389B02FF380B500B600123523813606B
:10011000FF380138C046C046C046C046C046C0464B
:10012000C046C046C046C046C046C046F1D1237056
:1001300030BDC046432E00200010014000E100E029
:10014000FF00FFFF084B10B51B78002B01D1FFF714
:10015000BDFFFFF757FF054A002302F093F849045B
:10016000C00B084310BDC046432E002040420F0084
:10017000F8B5284B04001B78002B01D1FFF7A6FF30
:10018000FFF740FF244A002302F07CF84B04C00B29
:10019000CF0B1843002622000023802192197B41B7
:1001A0000906884205D9002C03DB00200121121822
:1001B0004B41D9030023540CD003184A2143801823
:1001C00059410023144A02F03DF8154D04002B78E4
:1001D000144E002B02D0336898421AD007F0F2FD7B
:1001E000201A022802DC07F0EDFD841CA82122025F
:1001F0000D4B120AC9005A502A783460002A08D1DF
:1002000001322A708022F9395202FF395A5044399A
:100210005A50F8BD432E002040420F003F420F00CD
:10022000442E0020C02B002000100140074B1A78FC
:10023000002A09D08021C220054A490280001150BD
:100240004030115000221A707047C046442E0020E2
:10025000001001400022024B9A605A647047C04669
:10026000FC10014001704B1C0AD001238B404360FD
:10027000044BC360044B0361044B4361044B836034
:100280007047C046080500500C050050100500508E
:1002900014050050C1230E4A9B00D15810B5090621
:1002A00003D50C49096A002908D1D3585B070DD53D
:1002B000084B0021DB68002B01D107E00121064B30
:1002C0001868002802D0054B1B68984710BDC0462F
:1002D00000200040FC200040C42B0020C82B002040
:1002E000234A10B513781100012B19D1214B1B683B
:1002F0001B0715D1204BE0241A68F023100018408A
:1003000022420BD11D4A12681A4209D11C4A1D4BC8
:100310001A6080221C4B12021A6001E03028F1D0D2
:100320000B68DBB2012B0DD1124A1268120709D1FA
:10033000F021114A12680A40402A03D10F4A12687C
:100340000A420DD08022A32301210020D205DB0028
:10035000D1500E4B986091609A68002AFCD005E05D
:10036000C1228021D200C9058B50EBE710BDC046E9
:10037000E00F00F0E40F00F0E80F00F0EC0F00F0E9
:10038000DFFF07C004050040186C0040FC0000407F
:10039000802337B501221021DB05DA670E4A136985
:1003A0000B431361EFF310831400002B0CD16B4649
:1003B000DD1D280007F066FD002805D12B78012BF4
:1003C00002D107F05DFD06E040BF20BF034B62682D
:1003D0001A4200D120BF37BD00ED00E03FF0439E40
:1003E000014B024AD05870474405000000100140FC
:1003F00007B5084B084A01A899508022D2219202E1
:1004000089005A5044395A50FFF7C2FF01A807F03B
:100410003BFD07BD001001404405000070B5CE4310
:100420000500B3070FD108F011FA0400431C01D1F5
:10043000002416E00028FBD00521314011D12A000C
:1004400007F0D3FD0DE005231E4204D10100012079
:1004500007F023FD04E001239943E9D100F00AFCF1
:100460000400044B1A68002A02D1012119601A60A5
:10047000200070BDCC2B002010B50C00002804D14A
:1004800011002000FFF7CAFF0FE001239A43002369
:100490009A420BD10A4B19681300814206D9094AC6
:1004A000904203D3210007F01BFD0300064A1168A8
:1004B000002902D1012010601160180010BDC04653
:1004C000A4280020502E0020CC2B0020084B10B573
:1004D0001B68834204D9074B984201D301F0F6FA16
:1004E000054B1A68002A02D1012119601A6010BD5B
:1004F000A4280020502E0020CC2B00200E4B82B0D0
:100500001A68002A15D1402199608021490159605B
:1005100001214942D96019610848BE31FF3142507A
:1005200007495A6101AA4A4007218A4301310A4317
:100530001A60012002B07047A82D0020D02B0020A7
:100540005555555510B50400072208340B000021FD
:10055000144201D06142114001224018591A064B41
:100560000A43D96098614260282241184A60034AD0
:100570001269DA6110BDC046D02B0020A82D0020E2
:10058000F7B501254268009143182A4200D0A1E046
:100590000324224200D1FEE1B34E02683769891874
:1005A000801A0091B446B84247D37669B04200D170
:1005B00081E0E2401F2A1FD8D600283685686644AD
:1005C000C468B54204D0AF4237D8E968884234D114
:1005D000A54207D1012494402200A34D2C689443E6
:1005E0002C6077E0B44204D0A74226D8A26890429B
:1005F00023D1EC60A5606DE0C268846990421ED092
:100600008568AF4219D8E968884216D19168884256
:1006100013D1EA609560002C5CD0C769924E3D0012
:100620004C35AD00A959B446884228D1AA51002AB8
:100630001FD061460D69AA422DD207F0ACFC06001E
:1006400042691436002A03D10269043E002AE2D02E
:100650001500B4462E002A006D691436002DF8D11D
:100660001569043E002DF4D16745E6D861460D605A
:10067000D1E70122BA407468944374602AE031697A
:100680008C42DAD32169884201D1226100E06261A3
:10069000002ACED11EE094610469002C03D0A5424B
:1006A000CBD81461A2614469002C13D0A542C4D8F0
:1006B0005461A2610EE05A681440032C0AD16146CD
:1006C000009CAA438C605A602B00234343602300A4
:1006D000C45060E1644A16691400B342ADD30227E6
:1006E0005D682F4000D0C1E091698B420ED1D36884
:1006F00000999061C9180123D16019435369416081
:10070000984200D047E15761976044E151698B42BC
:1007100009D1936800995061C91801230B43916076
:100720004360415037E107229543009A52190092E5
:10073000ED081F2D23D8E9008C4628219F688C44A2
:10074000A444DA68674506D0BE4200D975E7F96867
:100750008B4200D071E7974205D10123AB4022685C
:100760009A43226072E0624506D0964200D964E75F
:1007700091688B4200D060E7FA60976066E0DA68C3
:100780009D69934208D09F68BE4200D955E7F96839
:100790008B4200D1F8E050E7142294465A699C44F9
:1007A000002A05D1103294461A699C44002A14D0BC
:1007B0001700142162468C460192BC443A007F69BE
:1007C000002FF6D104398C4617699444002FF0D1DC
:1007D00001998E4200D930E70F60002D36D0D969DB
:1007E000214E0F004C37BF000191B959B4468B42DE
:1007F0000ED1BA51002A04D061460E69B24214D219
:100800001BE70123019A934072689A4372601DE0CE
:1008100031698D4200D210E729698B4201D12A61EA
:1008200000E06A61002AE7D110E095611D69002DA2
:1008300004D0AE4200D900E71561AA615B69002BC4
:1008400004D09E4200D9F8E653619A610123009AD0
:10085000134343601300C250034B5A6990420CD1BA
:10086000009A9A6097E0C046D02B00200122954361
:100870005D60009B1A434260C350009BDD081F2D42
:1008800016D801210A00AA40EB0026682833E31895
:10089000324203D1324322601A0004E09A6821698F
:1008A0008A4200D2C9E69860D0608260C36072E07C
:1008B000009B394C1B0A1F22A3421FD808245D1E2F
:1008C000FF3D2D0C2540AB40344A043C9E18360CAD
:1008D0002640B3401A000227314BD418240C3C4068
:1008E000A240AB19D20B1C19131B1A00009C153225
:1008F000D44001220E3322405B00D2180125002390
:1009000014009540274FC2617968436103613E003E
:100910004C340D4207D10B00A400E0512B433C198D
:100920007B6084611EE0A400E5591F2A02D01924CF
:100930005308E31A009A07249A406B680099A3436E
:10094000994212D0D30F04339B005F595200002FFD
:1009500001D03D00F1E73169EA18914200D96CE617
:1009600058518561C060806015E03269AB6895427E
:1009700000D262E6934200D25FE6D860A86083604E
:100980000023C560836106E091688B4200D054E685
:10099000FA60976021E7F7BDFFFF000000F0FFFF5E
:1009A00000C0FFFFD02B0020F0B5436885B00722C0
:1009B00001911900914304004218A3480669029668
:1009C000B4420AD303261E40B446012E05D09442F9
:1009D00003D201265768374201D107F0DCFA654699
:1009E000002D10D1019BFF2B00D81EE1043399424A
:1009F00000D21AE1019BC91A944B9A68B240914205
:100A000000D81DE111E1019DA94211D3491B0F2915
:100A100000D815E102223340134360191D4303231C
:100A20000B436560436043185A6816435E60F9E003
:100A30008569AA4213D1C2688918019A8A4200D3F3
:100A4000F5E08A1A0199334067180221019D0B4392
:100A50001D43164365607E608761C260F0E04569B2
:100A6000AA4228D182688918019A8A4200D9DEE018
:100A70008A1A0F2A12D9022533402B43019D01996E
:100A80001D433300671813436560B9187B604B68DA
:100A90000A60B3434B6082604761D1E00222334079
:100AA00013430B43636061184B681E4300234E6081
:100AB00083604361C4E0BB0700D5B8E007239F43D0
:100AC000CB199C46019B634500D9B0E06346019970
:100AD000FF085B1A03931F2F24D85B4EF8002830C1
:100AE00091683018D368814207D0029D8D4200D9A9
:100AF00073E7CD68AA4200D06FE7994205D1012380
:100B0000BB4032689A4332606BE0834207D0029860
:100B1000984200D961E79868824200D05DE7CB60D7
:100B200099605EE0D36891699A4208D09068029D0E
:100B3000854200D951E7C568AA427AD04DE717002F
:100B400053691437002B03D11369043F002B10D0D5
:100B500018003E0007000300406914370028F8D150
:100B60001869043F0028F4D1029DB54200D934E74A
:100B70003060002935D0D0690290029E32484C3650
:100B8000B60035580700AA420DD13350002B03D0D0
:100B90003869834214D220E70123029A93404268C5
:100BA0009A4342601DE00069814200D215E708695E
:100BB000824201D10B6100E04B61002BE8D110E0D3
:100BC00099611169002904D0884200D905E71961AB
:100BD0008B615269002A04D0904200D9FDE65A6127
:100BE0009361039B616801220F2B0AD8022563469B
:100BF0001140294319436160E1184B681A434A6068
:100C00001EE0019B1140E0180223019D19430D4392
:100C1000039901330B4365604360431859680A43E5
:100C200003995A60FFF7ACFC0AE0644608E0002430
:100C300006E09D68AA4200D0CFE6C360986098E7BE
:100C4000200005B0F0BDC046D02B0020A82D00200C
:100C5000074B0200C133FF3318000368934203D8E7
:100C600041685B189A4202D380680028F5D170472A
:100C7000D02B0020F0B5C24A85B0F42800D981E11C
:100C8000102300930A2803D90B30093B98430090A6
:100C9000009BDE0813681D00F5400193AB0728D0C8
:100CA00001210B00AB43F618F3002833D3189868E2
:100CB0008468A34204D1B140019B8B4313600DE0D3
:100CC0001269944208D3E268904205D1E3609C60C7
:100CD00004E01269954246D207F05DF90323F6005D
:100CE000334343600123861972681343736000F035
:100CF00009FD936802930299009B8B4200D807E399
:100D0000002D63D001242000B040A040434218438E
:100D10002B00B340034059420B401021013B180BFC
:100D20000840C34019005D0908231D40E9404019EF
:100D3000043B8D082B40D940C01802234D082B409E
:100D4000D9404D082540E940C01843195B18D90027
:100D50002831511888688568A942BAD19C40019908
:100D6000A143116004E0EA689042B5D1E9608D606A
:100D7000009ADB009B1A032200990A434260012279
:100D800045181A436A60029AEB50002A19D07C4930
:100D9000D2080F68D600BC46012797403A00674644
:100DA00028364C698E193A4203D117430F6032003E
:100DB00003E0B26809698A428ED3B460D460A2604D
:100DC000E6606F4A9360556100F09CFC53680393A2
:100DD000002B00D19CE25942194010230139080B25
:100DE00018400B00C34008215C092140CB4040184B
:100DF00004219C082140CB40401802215C0821407E
:100E0000CB409C07E40FE3404018190003195B181E
:100E10004C339B00D358072418005A680099A2430A
:100E2000521A196900290BD04B68009DA3435B1B24
:100E3000934201D3130000E008001A000B00F0E712
:100E400059690029F0D14E4B1E69864200D943E70B
:100E5000009B9C468444604500D33DE7C36881699C
:100E6000984209D08468A64200D935E7E568A842CF
:100E700001D100F049FC2FE7070043691437002B2C
:100E800003D10369043F002B0FD01C003D00270055
:100E9000230064691437002CF8D11C69043F002C2E
:100EA000F4D1AE4200D917E72C60002933D0C669CF
:100EB000334C35004C35AD002F59B8420DD12B5174
:100EC000002B04D02E4C2469A34213D204E7012343
:100ED000B3400399994361601DE02469A14200D2A7
:100EE000FAE60C69A04201D10B6100E04B61002BD6
:100EF000E8D110E099610169002904D08C4200D941
:100F0000EAE619618B614169002904D08C4200D95D
:100F1000E2E659618B61032300990F2A08D88A18E9
:100F2000134343600123821851680B435360E7E188
:100F30000B43012143600B00644613436360029B33
:100F4000A250002B16D0DE08B1400D4DF300019EDB
:100F500028336C69EB18314203D10E432E6019001F
:100F600004E099682D69A94200D2B5E69C60CC6086
:100F7000A160E360024B9A6062465A61C0E1C046DC
:100F8000D02B00200300413300D9BEE107230B30F2
:100F90009843536800900193002B00D1B8E10025DD
:100FA00043429C46010AA94223D0CA4B1F359942AD
:100FB0001FD808234E1EFF3E360C1E400B00B340C8
:100FC0000420C5491D3D5C18240C0440A340C349BE
:100FD0005818000C28408340D90B331918180B1AE5
:100FE0001900009D1531CD4001210E338B400D407D
:100FF000ED182B004C339B00D15800292AD0002338
:101000001F2D02D0680819331B1A0026009F3000DC
:101010009F4007234C689C43009BE41A644503D21D
:10102000002C44D0A4460800FC0F4B690434A400F3
:101030006158002B02D08B4201D103E0330000291C
:1010400002D01E007F00E4E764460100002B2FD190
:10105000002845D101200100A94081404B4219439D
:10106000019B194000D153E14B4219401023013933
:101070000C0B2340D94008244D092540E9405B1959
:10108000043C8D082C40E1401B1902244D082540EA
:101090005C190B00EB4059080840C34019002318A5
:1010A0005B184C339B00D3586446002100E00B00D2
:1010B000A44608000724002B0FD05A680099A243C9
:1010C000521A624501D3624600E0180019690029EE
:1010D00000D159690B009446EDE7002800D117E1D3
:1010E0007F4A009993685B1A634500D810E116693E
:1010F000864200D9F0E54318834200D8ECE5C26887
:101100008169824208D08468A64200D9E4E5E56896
:10111000854200D101E3DFE5070042691437002A68
:1011200003D10269043F002A0FD014003D002700BC
:10113000220064691437002CF8D11469043F002C94
:10114000F4D1AE4200D9C7E52C60002934D0C7697C
:10115000634C3D004C35AD002E5986420DD12A51CD
:10116000002A04D05E4C2469A24214D2B4E50122C4
:10117000BA400199914361601EE0594C2469A14233
:1011800000D2A9E50C69844201D10A6100E04A61FC
:10119000002AE7D110E091610169002904D08C4256
:1011A00000D999E511618A614169002904D08C4216
:1011B00000D991E551618A61614603220F2909D85E
:1011C000009B63441A4342600122C31859680A43D2
:1011D0005A6095E0009901250A43426062462A431D
:1011E0005A6062469A50D2081F2A15D895403C4E44
:1011F000D100346828317118254203D12543356068
:101200000A0004E08A683469A24200D264E58B6077
:10121000D3609A60D96073E062462E49120A1F2497
:101220008A421DD80826571EFF3F3F0C3740BA4060
:10123000294956180421360C0E40B2402749BE19E0
:1012400054180221240C21408A407118D20B561ADE
:10125000320064461532D4400E362C407600A41974
:1012600001251F4E00217268A540019222004C32D8
:101270000292019ADC61596119613700154207D168
:101280001100029A2943920093517160B2181DE037
:10129000029A920092591F2C02D019256408291B2A
:1012A000644607258C405168A9438C451AD0E10F4C
:1012B000043189008E586400002E01D03200F2E71C
:1012C0003D695418A54200D906E58B509A61DB6050
:1012D0009B6015E0FFFF000000F0FFFF00C0FFFF74
:1012E000D02B00203C699168A24200D2F4E4A142D4
:1012F00000D2F1E4CB609360DA60002299609A61D9
:101300000830002800D0D6E302E001235B420093BE
:10131000B949009A8B680E009A4218D89A1A4869FF
:101320000F2A08D9009B8A60C3184B610121114321
:1013300059609A50E2E100228A604A6103321A43FE
:1013400042600122C31859680A435A60DAE1CB6847
:10135000009A9A4208D288699B1A8218CB608A61E7
:1013600001210B435360C9E1A44B1A680293002A80
:1013700001D1FFF7C3F8029B9F68009B3D002F350A
:101380007F425B193B400193019A009B934200D33B
:1013900006E2DC235B00F258002A09D0083BF15832
:1013A000019B5B18994200D3FAE19A4200D2F7E11F
:1013B000DE235B00F3585B0700D5D5E1B069002858
:1013C00003D0FFF745FC041E31D1002004F07CFA65
:1013D0000400431C00D1C1E1029B5868431E1C421B
:1013E0000AD0019A1B1940420340121B9F18009B10
:1013F000BB4200D3B2E100E0019F814B9F4200D984
:10140000ACE1DC235B00F358002B09D0D82252005A
:10141000B158CA19914200D3A0E19A4200D99DE186
:10142000380004F051FA0500844214D11BE0F3683F
:10143000E91A009BC918724B0F409F4200D98DE1F9
:10144000380004F041FA0CCCD318051E9D4202D19D
:10145000431C08D182E16B1C00D17FE1009B30333B
:10146000BB4200D961E1D8225200B358FB18B350F7
:101470000432B1588B4200D9B3503300B469C13340
:10148000FF33002C22D13369002B01D0AB4200D9AD
:101490003561E02300225B00F5500433F750083338
:1014A000F250029B1B68736201235B423362D300DC
:1014B0002833F3180132DB609B60202AF7D1390012
:1014C0002800283913E09B68002B13D019685A684C
:1014D00088188542F7D1D86800070BD48C4209D30D
:1014E000AC4207D22000F168D2195A607918FFF790
:1014F00029F8F6E03369AB4200D935613200EB19C7
:101500009C46C132FF321368634503D09268002ABB
:10151000F9D105E00821D3680B40019300D141E1E6
:101520002000FFF795FB0CC8D3181A00029307237D
:10153000273A00261A4201D056421E40029B2F3EF7
:101540009B1901932300019A10339A4200D201940F
:10155000390028002839FEF7F5FF1B23019A536054
:10156000254B9C4613006246C1320833FF3243CA02
:1015700043C3126861461A60E02362465B00D5509F
:101580000433D750002265460833CA50019BC93244
:10159000FF3208338B50019BC23A1C33FF3A029949
:1015A00004C39942FBD8019B9C4200D199E00122DF
:1015B000181B5B68019993434B60130003436360FE
:1015C000C60808601F2E1DD8B240F30028682833D3
:1015D000EB181100024203D1014329601A0005E013
:1015E0009A6829698A4201D2FFF776FB9C60D46031
:1015F000A260E36075E0C046D02B0020A82D00203B
:10160000FEFFFF7FCD4B060A1F219E421ED80827F2
:10161000751EFF3D2D0C2F40BE40C94B1D39F518DE
:1016200004232D0C1D40AE40C64B7D19F3181B0C36
:1016300019408E406B18F60BF31A1900050015318E
:10164000CD4029000E3311405B00C918BE4E012564
:10165000736800229C460B004C3301938D40634617
:10166000E1616261226137001D4207D16246019B40
:101670002A439B009C517260F3181EE0019B9B0063
:101680009B591F2902D0192549086A1A010007250C
:1016900091405A68AA43904213D0CA0F0432920074
:1016A000D6584900002E01D03300F2E73869991866
:1016B000884201D9FFF710FBD450A361E460A46015
:1016C0000FE039699A688B4201D2FFF705FB8A4225
:1016D00001D2FFF701FBD4609C60E3600023A260AD
:1016E000A361994A0099D368994255D290695B1ACF
:1016F0004118D3609161012213434B600323009A88
:10170000134343600830D6E19D68A84201D0FFF73B
:10171000E3FAE3609C60FFF7C8FB9568A84201D03C
:10172000FFF7DAFAE26094600FE5029B9A687B4269
:1017300014000393009B2F34E418E31B54421C4015
:10174000824B9C4200D98EE6200004F0BDF83F1980
:10175000431C00D087E6039804F0B6F8DE22042389
:101760005200B1580B43B350019B1A1E774B9A425B
:1017700012D8019804F0A8F80500002004F0A4F89D
:101780006B1C09D0431C07D0854205D2009B471B28
:1017900028339F4200D966E600F098FE0C230360D0
:1017A000002088E153681560D91951602A00072389
:1017B000083201981A4201D0504218402B18029367
:1017C00063460721083300220B4202D05B420B40E4
:1017D0001A0013000299009A63445F1A8A1800994C
:1017E00000987F1A0321029D084368609C4207D13C
:1017F000F368B261FF180123F7601F43576050E19F
:101800007069834208D1B3687261FF1801233B43BA
:10181000B7605360D75144E158680140012900D0B6
:10182000ACE006318843C10800908C461F292AD8B5
:101830006446E400283498683419D968A04209D075
:101840003669B04201D2FFF747FAC668B34201D009
:10185000FFF742FA3C4E884206D1604601218140A2
:1018600030688843306086E0A14209D03469A142E3
:1018700001D2FFF731FA8C68A34201D0FFF72CFAAE
:10188000C160886077E0D96898698B420BD09C680A
:101890003669B44201D2FFF71FFAE668B34200D1BD
:1018A00001E1FFF719FA14218C4659699C4400297B
:1018B00005D110318C4619699C44002915D00C00C3
:1018C000210014246646A4464C698C44002CF7D1B0
:1018D0001034A4460C698C44002CF1D11A4D2D69AA
:1018E000B54201D9FFF7F8F93460002843D0DC692C
:1018F000A4466646144C4C36B6003559AB420FD15F
:101900003151002905D0104C2469A14220D2FFF7A3
:10191000E3F96046012181406068884360602AE005
:101920002469A04201D2FFF7D7F90469A34201D18B
:10193000016100E041610029E5D11CE0FFFF0000EA
:1019400000F0FFFF00C0FFFFD02B0020FEFFFF7F55
:1019500088611869002805D0844201D9FFF7BCF9D5
:10196000086181615869002805D0844201D9FFF7D8
:10197000B3F94861816100995B187F1801215868AB
:10198000FC08884358600B003B435360D7511F2C21
:1019900016D8A1404948E30006682833C3183142ED
:1019A00003D131430160190005E099680069814263
:1019B00001D2FFF791F99A60CA609160D36070E03C
:1019C0003F483B0A1F2483421FD808265C1EFF3C69
:1019D000240C3440A3403B481E180420360C06401B
:1019E000B3403948A6191818000C844602206546F1
:1019F000284083403018DB0B1E1A33003C0015339F
:101A0000DC400E36214076008C1900232B495361AF
:101A100013614B6820009C4601236546A340D461B6
:101A20000E004C302B4207D16446800042501C43CC
:101A300008184C60906121E0800043581F2C03D0AF
:101A400019216408091B0191380001990724884075
:101A50005968A1438F4214D0C10F04318900CD5879
:101A60004000AC46002D01D06346F1E734695818B8
:101A7000844201D9FFF730F9CA509361D260926075
:101A80000FE030699968834201D2FFF725F981425E
:101A900001D2FFF721F9CA609A60D36000239160F8
:101AA000936102982EE68D68AB4201D0FFF714F9DE
:101AB000E1608C6019E705B0F0BDC046D02B002076
:101AC000FFFF000000F0FFFF00C0FFFFF7B5002898
